{
  "_format": "hh-sol-artifact-1",
  "contractName": "SingleSwapToken",
  "sourceName": "Contracts/SwapToken.sol",
  "abi": [
    {
      "inputs": [
        {
          "internalType": "address",
          "name": "token1",
          "type": "address"
        },
        {
          "internalType": "address",
          "name": "token2",
          "type": "address"
        },
        {
          "internalType": "uint256",
          "name": "amountIn",
          "type": "uint256"
        }
      ],
      "name": "swapExactInputSingle",
      "outputs": [
        {
          "internalType": "uint256",
          "name": "amountOut",
          "type": "uint256"
        }
      ],
      "stateMutability": "nonpayable",
      "type": "function"
    },
    {
      "inputs": [
        {
          "internalType": "address",
          "name": "token1",
          "type": "address"
        },
        {
          "internalType": "address",
          "name": "token2",
          "type": "address"
        },
        {
          "internalType": "uint256",
          "name": "amountOut",
          "type": "uint256"
        },
        {
          "internalType": "uint256",
          "name": "amountInMaximum",
          "type": "uint256"
        }
      ],
      "name": "swapExactOutputSingle",
      "outputs": [
        {
          "internalType": "uint256",
          "name": "amountIn",
          "type": "uint256"
        }
      ],
      "stateMutability": "nonpayable",
      "type": "function"
    },
    {
      "inputs": [],
      "name": "swapRouter",
      "outputs": [
        {
          "internalType": "contract ISwapRouter",
          "name": "",
          "type": "address"
        }
      ],
      "stateMutability": "view",
      "type": "function"
    }
  ],
  "bytecode": "0x608060405234801561001057600080fd5b50610f1f806100206000396000f3fe608060405234801561001057600080fd5b50600436106100415760003560e01c8063bc96faa914610046578063c31c9c0714610076578063ceb9201214610094575b600080fd5b610060600480360381019061005b919061086e565b6100c4565b60405161006d91906108e4565b60405180910390f35b61007e610255565b60405161008b919061095e565b60405180910390f35b6100ae60048036038101906100a99190610979565b61026d565b6040516100bb91906108e4565b60405180910390f35b60006100d2853330856103d3565b6100dd85308461052b565b60006040518061010001604052808773ffffffffffffffffffffffffffffffffffffffff1681526020018673ffffffffffffffffffffffffffffffffffffffff168152602001610bb862ffffff1681526020013373ffffffffffffffffffffffffffffffffffffffff168152602001428152602001858152602001848152602001600073ffffffffffffffffffffffffffffffffffffffff16815250905073e592427a0aece92de3edee1f18e0157c0586156473ffffffffffffffffffffffffffffffffffffffff1663db3e2198826040518263ffffffff1660e01b81526004016101c89190610ab9565b6020604051808303816000875af11580156101e7573d6000803e3d6000fd5b505050506040513d601f19601f8201168201806040525081019061020b9190610aea565b91508282101561024c576102358673e592427a0aece92de3edee1f18e0157c05861564600061052b565b61024b863384866102469190610b46565b610680565b5b50949350505050565b73e592427a0aece92de3edee1f18e0157c0586156481565b600061027b843330856103d3565b61029a8473e592427a0aece92de3edee1f18e0157c058615648461052b565b60006040518061010001604052808673ffffffffffffffffffffffffffffffffffffffff1681526020018573ffffffffffffffffffffffffffffffffffffffff168152602001610bb862ffffff1681526020013373ffffffffffffffffffffffffffffffffffffffff16815260200142815260200184815260200160008152602001600073ffffffffffffffffffffffffffffffffffffffff16815250905073e592427a0aece92de3edee1f18e0157c0586156473ffffffffffffffffffffffffffffffffffffffff1663414bf389826040518263ffffffff1660e01b81526004016103869190610c1c565b6020604051808303816000875af11580156103a5573d6000803e3d6000fd5b505050506040513d601f19601f820116820180604052508101906103c99190610aea565b9150509392505050565b6000808573ffffffffffffffffffffffffffffffffffffffff166323b872dd60e01b86868660405160240161040a93929190610c47565b604051602081830303815290604052907bffffffffffffffffffffffffffffffffffffffffffffffffffffffff19166020820180517bffffffffffffffffffffffffffffffffffffffffffffffffffffffff83818316178352505050506040516104749190610cef565b6000604051808303816000865af19150503d80600081146104b1576040519150601f19603f3d011682016040523d82523d6000602084013e6104b6565b606091505b50915091508180156104e457506000815114806104e35750808060200190518101906104e29190610d3e565b5b5b610523576040517f08c379a000000000000000000000000000000000000000000000000000000000815260040161051a90610dc8565b60405180910390fd5b505050505050565b6000808473ffffffffffffffffffffffffffffffffffffffff1663095ea7b360e01b8585604051602401610560929190610de8565b604051602081830303815290604052907bffffffffffffffffffffffffffffffffffffffffffffffffffffffff19166020820180517bffffffffffffffffffffffffffffffffffffffffffffffffffffffff83818316178352505050506040516105ca9190610cef565b6000604051808303816000865af19150503d8060008114610607576040519150601f19603f3d011682016040523d82523d6000602084013e61060c565b606091505b509150915081801561063a57506000815114806106395750808060200190518101906106389190610d3e565b5b5b610679576040517f08c379a000000000000000000000000000000000000000000000000000000000815260040161067090610e5d565b60405180910390fd5b5050505050565b6000808473ffffffffffffffffffffffffffffffffffffffff1663a9059cbb60e01b85856040516024016106b5929190610de8565b604051602081830303815290604052907bffffffffffffffffffffffffffffffffffffffffffffffffffffffff19166020820180517bffffffffffffffffffffffffffffffffffffffffffffffffffffffff838183161783525050505060405161071f9190610cef565b6000604051808303816000865af19150503d806000811461075c576040519150601f19603f3d011682016040523d82523d6000602084013e610761565b606091505b509150915081801561078f575060008151148061078e57508080602001905181019061078d9190610d3e565b5b5b6107ce576040517f08c379a00000000000000000000000000000000000000000000000000000000081526004016107c590610ec9565b60405180910390fd5b5050505050565b600080fd5b600073ffffffffffffffffffffffffffffffffffffffff82169050919050565b6000610805826107da565b9050919050565b610815816107fa565b811461082057600080fd5b50565b6000813590506108328161080c565b92915050565b6000819050919050565b61084b81610838565b811461085657600080fd5b50565b60008135905061086881610842565b92915050565b60008060008060808587031215610888576108876107d5565b5b600061089687828801610823565b94505060206108a787828801610823565b93505060406108b887828801610859565b92505060606108c987828801610859565b91505092959194509250565b6108de81610838565b82525050565b60006020820190506108f960008301846108d5565b92915050565b6000819050919050565b600061092461091f61091a846107da565b6108ff565b6107da565b9050919050565b600061093682610909565b9050919050565b60006109488261092b565b9050919050565b6109588161093d565b82525050565b6000602082019050610973600083018461094f565b92915050565b600080600060608486031215610992576109916107d5565b5b60006109a086828701610823565b93505060206109b186828701610823565b92505060406109c286828701610859565b9150509250925092565b6109d5816107fa565b82525050565b600062ffffff82169050919050565b6109f3816109db565b82525050565b610a0281610838565b82525050565b610a11816107da565b82525050565b61010082016000820151610a2e60008501826109cc565b506020820151610a4160208501826109cc565b506040820151610a5460408501826109ea565b506060820151610a6760608501826109cc565b506080820151610a7a60808501826109f9565b5060a0820151610a8d60a08501826109f9565b5060c0820151610aa060c08501826109f9565b5060e0820151610ab360e0850182610a08565b50505050565b600061010082019050610acf6000830184610a17565b92915050565b600081519050610ae481610842565b92915050565b600060208284031215610b0057610aff6107d5565b5b6000610b0e84828501610ad5565b91505092915050565b7f4e487b7100000000000000000000000000000000000000000000000000000000600052601160045260246000fd5b6000610b5182610838565b9150610b5c83610838565b9250828203905081811115610b7457610b73610b17565b5b92915050565b61010082016000820151610b9160008501826109cc565b506020820151610ba460208501826109cc565b506040820151610bb760408501826109ea565b506060820151610bca60608501826109cc565b506080820151610bdd60808501826109f9565b5060a0820151610bf060a08501826109f9565b5060c0820151610c0360c08501826109f9565b5060e0820151610c1660e0850182610a08565b50505050565b600061010082019050610c326000830184610b7a565b92915050565b610c41816107fa565b82525050565b6000606082019050610c5c6000830186610c38565b610c696020830185610c38565b610c7660408301846108d5565b949350505050565b600081519050919050565b600081905092915050565b60005b83811015610cb2578082015181840152602081019050610c97565b60008484015250505050565b6000610cc982610c7e565b610cd38185610c89565b9350610ce3818560208601610c94565b80840191505092915050565b6000610cfb8284610cbe565b915081905092915050565b60008115159050919050565b610d1b81610d06565b8114610d2657600080fd5b50565b600081519050610d3881610d12565b92915050565b600060208284031215610d5457610d536107d5565b5b6000610d6284828501610d29565b91505092915050565b600082825260208201905092915050565b7f5354460000000000000000000000000000000000000000000000000000000000600082015250565b6000610db2600383610d6b565b9150610dbd82610d7c565b602082019050919050565b60006020820190508181036000830152610de181610da5565b9050919050565b6000604082019050610dfd6000830185610c38565b610e0a60208301846108d5565b9392505050565b7f5341000000000000000000000000000000000000000000000000000000000000600082015250565b6000610e47600283610d6b565b9150610e5282610e11565b602082019050919050565b60006020820190508181036000830152610e7681610e3a565b9050919050565b7f5354000000000000000000000000000000000000000000000000000000000000600082015250565b6000610eb3600283610d6b565b9150610ebe82610e7d565b602082019050919050565b60006020820190508181036000830152610ee281610ea6565b905091905056fea26469706673582212207db0a09f669358b2c1947cb72db5df855527a71526cf5734d8deb15d86bbdfd864736f6c63430008110033",
  "linkReferences": {},
  "deployedLinkReferences": {}
}