{
  "_format": "hh-sol-artifact-1",
  "contractName": "SwapMultiHop",
  "sourceName": "Contracts/SwapMultiHop.sol",
  "abi": [
    {
      "inputs": [],
      "name": "DAI",
      "outputs": [
        {
          "internalType": "address",
          "name": "",
          "type": "address"
        }
      ],
      "stateMutability": "view",
      "type": "function"
    },
    {
      "inputs": [],
      "name": "USDC",
      "outputs": [
        {
          "internalType": "address",
          "name": "",
          "type": "address"
        }
      ],
      "stateMutability": "view",
      "type": "function"
    },
    {
      "inputs": [],
      "name": "WETH9",
      "outputs": [
        {
          "internalType": "address",
          "name": "",
          "type": "address"
        }
      ],
      "stateMutability": "view",
      "type": "function"
    },
    {
      "inputs": [
        {
          "internalType": "uint256",
          "name": "amountIn",
          "type": "uint256"
        }
      ],
      "name": "swapExactInputMultihop",
      "outputs": [
        {
          "internalType": "uint256",
          "name": "amountOut",
          "type": "uint256"
        }
      ],
      "stateMutability": "nonpayable",
      "type": "function"
    },
    {
      "inputs": [
        {
          "internalType": "uint256",
          "name": "amountOut",
          "type": "uint256"
        },
        {
          "internalType": "uint256",
          "name": "amountInMaximum",
          "type": "uint256"
        }
      ],
      "name": "swapExactOutputMultihop",
      "outputs": [
        {
          "internalType": "uint256",
          "name": "amountIn",
          "type": "uint256"
        }
      ],
      "stateMutability": "nonpayable",
      "type": "function"
    },
    {
      "inputs": [],
      "name": "swapRouter",
      "outputs": [
        {
          "internalType": "contract ISwapRouter",
          "name": "",
          "type": "address"
        }
      ],
      "stateMutability": "view",
      "type": "function"
    }
  ],
  "bytecode": "0x608060405234801561001057600080fd5b50610ebe806100206000396000f3fe608060405234801561001057600080fd5b50600436106100625760003560e01c80633b85cf6a146100675780634aa4a4fc1461009757806389a30271146100b5578063c31c9c07146100d3578063e0bab4c4146100f1578063edd835571461010f575b600080fd5b610081600480360381019061007c919061080e565b61013f565b60405161008e919061085d565b60405180910390f35b61009f610331565b6040516100ac91906108b9565b60405180910390f35b6100bd610349565b6040516100ca91906108b9565b60405180910390f35b6100db610361565b6040516100e89190610933565b60405180910390f35b6100f9610379565b60405161010691906108b9565b60405180910390f35b6101296004803603810190610124919061094e565b610391565b604051610136919061085d565b60405180910390f35b600061016173c02aaa39b223fe8d0a0e5c4f27ead9083c756cc2333085610526565b61019473c02aaa39b223fe8d0a0e5c4f27ead9083c756cc273e592427a0aece92de3edee1f18e0157c058615648461067e565b60006040518060a00160405280736b175474e89094c44da98b954eedeac495271d0f606473a0b86991c6218b36c1d19d4a2e9eb0ce3606eb48610bb873c02aaa39b223fe8d0a0e5c4f27ead9083c756cc26040516020016101f9959493929190610a08565b60405160208183030381529060405281526020013373ffffffffffffffffffffffffffffffffffffffff16815260200142815260200185815260200184815250905073e592427a0aece92de3edee1f18e0157c0586156473ffffffffffffffffffffffffffffffffffffffff1663f28c0498826040518263ffffffff1660e01b81526004016102889190610b8b565b6020604051808303816000875af11580156102a7573d6000803e3d6000fd5b505050506040513d601f19601f820116820180604052508101906102cb9190610bc2565b91508282101561032a5761030973c02aaa39b223fe8d0a0e5c4f27ead9083c756cc273e592427a0aece92de3edee1f18e0157c05861564600061067e565b61032973c02aaa39b223fe8d0a0e5c4f27ead9083c756cc2303386610526565b5b5092915050565b73c02aaa39b223fe8d0a0e5c4f27ead9083c756cc281565b73a0b86991c6218b36c1d19d4a2e9eb0ce3606eb4881565b73e592427a0aece92de3edee1f18e0157c0586156481565b736b175474e89094c44da98b954eedeac495271d0f81565b60006103b373c02aaa39b223fe8d0a0e5c4f27ead9083c756cc2333085610526565b6103e673c02aaa39b223fe8d0a0e5c4f27ead9083c756cc273e592427a0aece92de3edee1f18e0157c058615648461067e565b60006040518060a0016040528073c02aaa39b223fe8d0a0e5c4f27ead9083c756cc2610bb873a0b86991c6218b36c1d19d4a2e9eb0ce3606eb486064736b175474e89094c44da98b954eedeac495271d0f60405160200161044b959493929190610a08565b60405160208183030381529060405281526020013373ffffffffffffffffffffffffffffffffffffffff1681526020014281526020018481526020016000815250905073e592427a0aece92de3edee1f18e0157c0586156473ffffffffffffffffffffffffffffffffffffffff1663c04b8d59826040518263ffffffff1660e01b81526004016104db9190610c65565b6020604051808303816000875af11580156104fa573d6000803e3d6000fd5b505050506040513d601f19601f8201168201806040525081019061051e9190610bc2565b915050919050565b6000808573ffffffffffffffffffffffffffffffffffffffff166323b872dd60e01b86868660405160240161055d93929190610c87565b604051602081830303815290604052907bffffffffffffffffffffffffffffffffffffffffffffffffffffffff19166020820180517bffffffffffffffffffffffffffffffffffffffffffffffffffffffff83818316178352505050506040516105c79190610cfa565b6000604051808303816000865af19150503d8060008114610604576040519150601f19603f3d011682016040523d82523d6000602084013e610609565b606091505b509150915081801561063757506000815114806106365750808060200190518101906106359190610d49565b5b5b610676576040517f08c379a000000000000000000000000000000000000000000000000000000000815260040161066d90610dd3565b60405180910390fd5b505050505050565b6000808473ffffffffffffffffffffffffffffffffffffffff1663095ea7b360e01b85856040516024016106b3929190610df3565b604051602081830303815290604052907bffffffffffffffffffffffffffffffffffffffffffffffffffffffff19166020820180517bffffffffffffffffffffffffffffffffffffffffffffffffffffffff838183161783525050505060405161071d9190610cfa565b6000604051808303816000865af19150503d806000811461075a576040519150601f19603f3d011682016040523d82523d6000602084013e61075f565b606091505b509150915081801561078d575060008151148061078c57508080602001905181019061078b9190610d49565b5b5b6107cc576040517f08c379a00000000000000000000000000000000000000000000000000000000081526004016107c390610e68565b60405180910390fd5b5050505050565b600080fd5b6000819050919050565b6107eb816107d8565b81146107f657600080fd5b50565b600081359050610808816107e2565b92915050565b60008060408385031215610825576108246107d3565b5b6000610833858286016107f9565b9250506020610844858286016107f9565b9150509250929050565b610857816107d8565b82525050565b6000602082019050610872600083018461084e565b92915050565b600073ffffffffffffffffffffffffffffffffffffffff82169050919050565b60006108a382610878565b9050919050565b6108b381610898565b82525050565b60006020820190506108ce60008301846108aa565b92915050565b6000819050919050565b60006108f96108f46108ef84610878565b6108d4565b610878565b9050919050565b600061090b826108de565b9050919050565b600061091d82610900565b9050919050565b61092d81610912565b82525050565b60006020820190506109486000830184610924565b92915050565b600060208284031215610964576109636107d3565b5b6000610972848285016107f9565b91505092915050565b60008160601b9050919050565b60006109938261097b565b9050919050565b60006109a582610988565b9050919050565b6109bd6109b882610898565b61099a565b82525050565b600062ffffff82169050919050565b60008160e81b9050919050565b60006109ea826109d2565b9050919050565b610a026109fd826109c3565b6109df565b82525050565b6000610a1482886109ac565b601482019150610a2482876109f1565b600382019150610a3482866109ac565b601482019150610a4482856109f1565b600382019150610a5482846109ac565b6014820191508190509695505050505050565b600081519050919050565b600082825260208201905092915050565b60005b83811015610aa1578082015181840152602081019050610a86565b60008484015250505050565b6000601f19601f8301169050919050565b6000610ac982610a67565b610ad38185610a72565b9350610ae3818560208601610a83565b610aec81610aad565b840191505092915050565b610b0081610898565b82525050565b610b0f816107d8565b82525050565b600060a0830160008301518482036000860152610b328282610abe565b9150506020830151610b476020860182610af7565b506040830151610b5a6040860182610b06565b506060830151610b6d6060860182610b06565b506080830151610b806080860182610b06565b508091505092915050565b60006020820190508181036000830152610ba58184610b15565b905092915050565b600081519050610bbc816107e2565b92915050565b600060208284031215610bd857610bd76107d3565b5b6000610be684828501610bad565b91505092915050565b600060a0830160008301518482036000860152610c0c8282610abe565b9150506020830151610c216020860182610af7565b506040830151610c346040860182610b06565b506060830151610c476060860182610b06565b506080830151610c5a6080860182610b06565b508091505092915050565b60006020820190508181036000830152610c7f8184610bef565b905092915050565b6000606082019050610c9c60008301866108aa565b610ca960208301856108aa565b610cb6604083018461084e565b949350505050565b600081905092915050565b6000610cd482610a67565b610cde8185610cbe565b9350610cee818560208601610a83565b80840191505092915050565b6000610d068284610cc9565b915081905092915050565b60008115159050919050565b610d2681610d11565b8114610d3157600080fd5b50565b600081519050610d4381610d1d565b92915050565b600060208284031215610d5f57610d5e6107d3565b5b6000610d6d84828501610d34565b91505092915050565b600082825260208201905092915050565b7f5354460000000000000000000000000000000000000000000000000000000000600082015250565b6000610dbd600383610d76565b9150610dc882610d87565b602082019050919050565b60006020820190508181036000830152610dec81610db0565b9050919050565b6000604082019050610e0860008301856108aa565b610e15602083018461084e565b9392505050565b7f5341000000000000000000000000000000000000000000000000000000000000600082015250565b6000610e52600283610d76565b9150610e5d82610e1c565b602082019050919050565b60006020820190508181036000830152610e8181610e45565b905091905056fea264697066735822122077255feca91646535846067b261cc8c2a8e125de0419c60f0b529a99abb6f6e764736f6c63430008110033",
  "linkReferences": {},
  "deployedLinkReferences": {}
}